{
    "contractName": "SimpleStorage",
    "abi": [
        {
            "inputs": [
                {
                    "internalType": "string",
                    "name": "_name",
                    "type": "string"
                },
                {
                    "internalType": "uint32",
                    "name": "_number",
                    "type": "uint32"
                },
                {
                    "internalType": "bool",
                    "name": "_choice",
                    "type": "bool"
                }
            ],
            "name": "addPeople",
            "outputs": [],
            "stateMutability": "nonpayable",
            "type": "function"
        },
        {
            "inputs": [
                {
                    "internalType": "uint256",
                    "name": "",
                    "type": "uint256"
                }
            ],
            "name": "persons",
            "outputs": [
                {
                    "internalType": "string",
                    "name": "name",
                    "type": "string"
                },
                {
                    "internalType": "uint32",
                    "name": "number",
                    "type": "uint32"
                },
                {
                    "internalType": "bool",
                    "name": "choice",
                    "type": "bool"
                }
            ],
            "stateMutability": "view",
            "type": "function"
        }
    ],
    "bytecode": "608060405234801561001057600080fd5b506104fd806100206000396000f3fe608060405234801561001057600080fd5b50600436106100365760003560e01c8063a2f9eac61461003b578063dcd7fefd14610066575b600080fd5b61004e6100493660046101f0565b61007b565b60405161005d93929190610209565b60405180910390f35b6100796100743660046102ac565b61014b565b005b6001818154811061008b57600080fd5b90600052602060002090600202016000915090508060000180546100ae9061037e565b80601f01602080910402602001604051908101604052809291908181526020018280546100da9061037e565b80156101275780601f106100fc57610100808354040283529160200191610127565b820191906000526020600020905b81548152906001019060200180831161010a57829003601f168201915b5050506001909301549192505063ffffffff81169060ff6401000000009091041683565b6040805160608101825284815263ffffffff8416602082015282151591810191909152600180548082018255600091909152815160029091027fb10e2d527612073b26eecdfd717e6a320cf44b4afac2b0732d9fcbe2b7fa0cf6019081906101b39082610407565b5060208201516001909101805460409093015115156401000000000264ffffffffff1990931663ffffffff90921691909117919091179055505050565b60006020828403121561020257600080fd5b5035919050565b606081526000845180606084015260005b81811015610237576020818801810151608086840101520161021a565b506000608082850101526080601f19601f83011684010191505063ffffffff841660208301528215156040830152949350505050565b634e487b7160e01b600052604160045260246000fd5b803563ffffffff8116811461029757600080fd5b919050565b8035801515811461029757600080fd5b6000806000606084860312156102c157600080fd5b833567ffffffffffffffff808211156102d957600080fd5b818601915086601f8301126102ed57600080fd5b8135818111156102ff576102ff61026d565b604051601f8201601f19908116603f011681019083821181831017156103275761032761026d565b8160405282815289602084870101111561034057600080fd5b82602086016020830137600060208483010152809750505050505061036760208501610283565b91506103756040850161029c565b90509250925092565b600181811c9082168061039257607f821691505b6020821081036103b257634e487b7160e01b600052602260045260246000fd5b50919050565b601f82111561040257600081815260208120601f850160051c810160208610156103df5750805b601f850160051c820191505b818110156103fe578281556001016103eb565b5050505b505050565b815167ffffffffffffffff8111156104215761042161026d565b6104358161042f845461037e565b846103b8565b602080601f83116001811461046a57600084156104525750858301515b600019600386901b1c1916600185901b1785556103fe565b600085815260208120601f198616915b828110156104995788860151825594840194600190910190840161047a565b50858210156104b75787850151600019600388901b60f8161c191681555b5050505050600190811b0190555056fea2646970667358221220a4087754c231b9274f0cf35a37ba0292e4772e9253257728ea01d2a72ef85fdd64736f6c63430008110033",
    "sourcePath": "c:/Users/gbemi/Desktop/Solidity, Blockchain, and Smart Contract Course/contracts/SimpleStorage.sol",
    "compiler": {
        "name": "solc",
        "version": "0.8.17+commit.8df45f5f"
    },
    "functionHashes": {
        "addPeople(string,uint32,bool)": "dcd7fefd",
        "persons(uint256)": "a2f9eac6"
    },
    "gasEstimates": {
        "creation": {
            "codeDepositCost": "255400",
            "executionCost": "294",
            "totalCost": "255694"
        },
        "external": {
            "addPeople(string,uint32,bool)": "infinite",
            "persons(uint256)": "infinite"
        }
    }
}